:02000004080AE8
:1000000000000A08D4100A080000060006000501D6
:080010000402DE0500000000FF
:04001800AC0D0A0819
:10001C0009480A4908B5884205D0094A824202D0EB
:10002C00121A00F079FE0748074A0021121A00F054
:10003C007EFE064808BD00BF0000002044100A08E0
:10004C006800002068000020B4010020B4010020EA
:10005C0070B500F027FC074B074C1E46E41AA408A9
:10006C000025A54204D056F8253098470135F8E70D
:10007C0070BD00BF10100A0840100A0800F013B839
:10008C0008B500F011F8BDE8084000F0CDBB00F059
:10009C000BB900F011B90078B0FA80F04009704744
:1000AC000123037070477047704700F081B800005F
:1000BC0008B5024B1B689B6C019308BDC001060878
:1000CC0008B5024B1B681B68019308BDD8010608D4
:1000DC0008B5024B1B681B69019308BDD8010608C3
:1000EC0008B5024B1B685B69019308BDD801060873
:1000FC0008B5024B1B689B69019308BDD801060823
:10010C0008B5024B1B68DB69019308BDD8010608D2
:10011C0008B5024B1B681B6A019308BDD801060881
:10012C0008B5024B1B689B69019308BDC401060806
:10013C0008B5024B1B685B6A019308BDC401060835
:10014C0008B5024B1B689B6A019308BDC4010608E5
:10015C0008B5024B1B68DB6A019308BDC401060895
:10016C0008B5024B1B681B6B019308BDC401060844
:10017C0008B5024B1B685B6B019308BDC4010608F4
:10018C0008B5024B1B681B6C019308BDC401060823
:10019C0008B5024B1B685B68019308BD9C010608FF
:1001AC0008B5024B1B685B69019308BD9C010608EE
:1001BC0008B5024B1B681B68019308BDB00106080B
:1001CC0008B5024B1B68DB6B019308BDCC0106081C
:1001DC0008B5024B1B685B68019308BDC801060893
:1001EC0008B5024B1B689B68019308BDC801060843
:1001FC0008B5024B1B68DB68019308BDC8010608F3
:10020C0008B5024B1B681B69019308BDC8010608A1
:10021C0008B5024B1B685B69019308BDC801060851
:10022C0008B5024B1B689B69019308BDC801060801
:10023C0008B5024B1B68DB69019308BDC8010608B1
:10024C0008B5024B1B681B6A019308BDC801060860
:10025C0008B5024B1B681B6B019308BDC80106084F
:10026C0008B5024B1B685B6B019308BDC8010608FF
:10027C0008B5024B1B685B68019308BDA401060816
:10028C0008B5034B1B68D3F89030019308BD0000F0
:10029C00A401060808B5034B1B68D3F89C300193E6
:1002AC0008BD0000A401060808B5024B1B681B68BA
:1002BC00019308BDA001060808B5024B1B685B68DA
:1002CC00019308BDA001060810B58368044613B15C
:1002DC00032201469847204610BD00231A46406869
:1002EC00FFF776BF002202214068FFF781BF002292
:1002FC0011464068FFF774BF002211464068FFF7B3
:10030C007FBF00231A4619464068FFF781BF0023C0
:10031C001A4619464068FFF783BF002281F001019D
:10032C004068FFF785BF00224068FFF791BF0022AD
:10033C0011464068FFF794BF002211464068FFF752
:10034C007FBF000070B516468EB0044608A800F0BA
:10035C00F7F91122002103A800F0E9FC304600F067
:10036C0017FD00250A4B009581B25B6803AA304645
:10037C00FFF79EFE20B12946204600F001FA03E06B
:10038C0003A9204600F0EAF920460EB070BD00BF6C
:10039C0074000020024B034A1A6000225A60704716
:1003AC006C000020C80D0A08002211464068FFF7B7
:1003BC0027BFF0B5164689B011220F46044600211E
:1003CC0003A800F0B4FC304600F0E2FC00250095D8
:1003DC0081B27B6803AA3046FFF76AFE20B129463A
:1003EC00204600F0CDF903E003A9204600F0B6F951
:1003FC00204609B0F0BD002211464068FFF720BF2F
:10040C00002211464068FFF72BBF00224068FFF71F
:10041C001FBF002281F001014068FFF709BF0023D4
:10042C001A4619464068FFF7FBBE00231A461946C8
:10043C004068FFF7EDBE002211464068FFF7D0BEC2
:10044C00002202214068FFF7D3BE00231A46406801
:10045C00FFF7BEBE024B04225A60024A1A60704774
:10046C0074000020FC0D0A0870474174704708B5F1
:10047C00007CFFF785FE20EAE07008BD08B5007C23
:10048C00FFF75EFE20EAE07008BD08B5007CFFF7C0
:10049C0067FE30EA200028BF4FF0FF3008BD08B5DA
:1004AC00007CFFF755FE30EA200028BF4FF0FF30EC
:1004BC0008BD007CFFF75CBE10B50446142100F0AB
:1004CC00D2FA204610BD70B5457C04460E4625B9BF
:1004DC00007CFFF755FE002805DD3146207CBDE889
:1004EC007040FFF725BE284670BD000010B50446CD
:1004FC0008461146002262604FF47A72A260054AE7
:10050C0020742260012262741A46FFF709FE20460D
:10051C0010BD00BF300E0A08F8B5194C25684DB94E
:10052C008420FFF7B4FD064618B18422294600F05A
:10053C00FEFB2660134D2E684EB98420FFF7A7FDF5
:10054C00074618B18422314600F0F1FB2F600E4FA4
:10055C00396811F0010611D13846FFF79CFD68B1DE
:10056C00226831462B680948FFF7C0FF3846FFF771
:10057C0097FD074A0749054800F070FA0348F8BD93
:10058C009800002090000020940000207C000020A7
:10059C006800002075040A0841747047704708B55C
:1005AC000021007CFFF7A4FD30EA200028BF4FF0AB
:1005BC00FF3008BD08B50121007CFFF799FD30EA3A
:1005CC00200028BF4FF0FF3008BD08B5007CFFF7B6
:1005DC0087FD20EAE07008BD08B5007CFFF778FDC8
:1005EC0020EAE07008BD007CFFF792BD10B5044610
:1005FC00142100F038FA204610BD38B50446007CB2
:10060C000D46FFF76DFD002801DC607C28B1294602
:10061C00207CFFF775FD20EAE07038BD10B504466C
:10062C00002363604FF47A73A360054B0846236084
:10063C000123217463741146FFF742FD204610BD5F
:10064C00600E0A0810B504461422002100F06FFB5E
:10065C00204610BD30B50E4D87B001A8FFF7F2FF54
:10066C00296811F0010410D12846FFF714FD60B180
:10067C0001AA21460748FFF7D1FF2846FFF710FDD6
:10068C00054A0649034800F0E9F9024807B030BDB5
:10069C009C000020A400002068000020A9050A0886
:1006AC0010B504461422002100F041FB204610BD79
:1006BC0010B50E4C86B001A8FFF7F2FF2368DB07DC
:1006CC0010D42046FFF7E7FC60B101AA01210848CD
:1006DC00FFF7A4FF2046FFF7E3FC064A064904484F
:1006EC0000F0BCF9024806B010BD00BFA00000200D
:1006FC00B800002068000020A9050A08704710B552
:10070C000446182100F0AFF9204610BDF8B50F468D
:10071C0000F10806051D002416F8011D0A223846B2
:10072C0000F03BF9AE42044407D0002CF4D02E214B
:10073C00384600F02FF90444EEE72046F8BD0000DF
:10074C0010B50446044B112240F8043B002100F084
:10075C00EEFA204610BD00BF900E0A080346074A69
:10076C0010B543F8042B01F1100251F8044B9142DF
:10077C0043F8044BF9D10A781A7010BD900E0A0890
:10078C00024A41600260042202757047900E0A080A
:10079C0010B59DF8084044EA032343EA024242EABA
:1007AC00016104234160037510BD000037B5044D91
:1007BC0005609DF818500095FFF7EAFF03B030BDB7
:1007CC00900E0A0808B5144B33B1FFF743FF0368CA
:1007DC001B699847002816DC104B33B1FFF79CFEC1
:1007EC0003681B699847002810DC0D4B0BB1AFF365
:1007FC0000800C4B7BB1FFF75BFF03681B699847CC
:10080C00002806DC08BDAFF30080E5E7AFF30080FD
:10081C00EBE7AFF3008008BD000000000000000013
:10082C00000000000000000008B5FFF7CBFFFFF749
:10083C00B7FC014B186008BD100100200248034AA8
:10084C000349121A00F068BA00400240044002400A
:10085C0040100A0807B5002300931A466FF0770181
:10086C00FFF718FD03B05DF804FB000007B54388E3
:10087C000A2B08D0502B09D1094B1B683BB103B094
:10088C005DF804EB1847FFF7E5FF06E00023009343
:10089C001A466FF07701FFF7FDFC03B05DF804FB1F
:1008AC00CC00002038B5104C104D2368AB42104BD7
:1008BC000CBF012200221A7002D0FFF7BFFF256087
:1008CC00FFF766FC044600F03BFA0A4B13B12046D6
:1008DC00AFF3008000210748FFF772FCBDE83840F9
:1008EC0000210548FFF7CCBC004002401E1C279A93
:1008FC00D00000200000000079080A0810B504465A
:10090C00FFF7E2FC204610BD034800238360034A36
:10091C00034900F0A3B800BFD400002068000020F9
:10092C0009090A08024B1A68024B1A60704700BF8B
:10093C0000000020E4000020014A024B1A607047BE
:10094C003B0F0A08E8000020F8B506460D468F1844
:10095C000024BD420CD0336815F8011B9B6830464F
:10096C009847002801DB0444F3E7002C08BF044639
:10097C002046F8BD70B505460C46084649B100F056
:10098C0007FA2B68024621462846BDE87040DB6812
:10099C00184770BD03689B681847012A98BF0A2244
:1009AC0030B50B468BB000218DF824100DF12304CB
:1009BC00B3FBF2F505FB1233DBB2092B94BF3033DA
:1009CC003733DBB2214604F801392B46002DEFD129
:1009DC00FFF7D0FF0BB030BD10B50446006818B15E
:1009EC00FFF76AFC0023236010BD10B50446FFF727
:1009FC00F3FF204610BD00004FF6FF7310B5084CF6
:100A0C0000202060A080A07120816381FFF730FC62
:100A1C002046BDE81040034A034900F01FB800BF50
:100A2C00EC00002068000020F7090A0813B5084CF8
:100A3C0000231A46194600932046FFF7B7FE2046BE
:100A4C00044A054902B0BDE8104000F007B800BFE9
:100A5C00F80000206800002009070A080B46014630
:100A6C00184600F04BB9FFF714BB0000184B1A687E
:100A7C00D1075CBF01221A60164B1A68D2075CBF03
:100A8C0001221A60144B1A68D0075CBF01221A604D
:100A9C00124B1A68D1075CBF01221A60104B1A68FE
:100AAC00D2075CBF01221A600E4B1A68D0075CBFDC
:100ABC0001221A600C4B1A68D1075CBF01221A6024
:100ACC000A4B1A68D2075CBF01221A60704700BF3C
:100ADC00300100202C0100202801002024010020DE
:100AEC00200100201C01002018010020140100200E
:100AFC00244B1A68D0075CBF01221A60224B1A687B
:100B0C00D1075CBF01221A60204B1A68D2075CBF68
:100B1C0001221A601E4B1A68D0075CBF01221A60B2
:100B2C001C4B1A68D1075CBF01221A601A4B1A6859
:100B3C00D2075CBF01221A60184B1A68D0075CBF41
:100B4C0001221A60164B1A68D1075CBF01221A6089
:100B5C00144B1A68D2075CBF01221A60124B1A6838
:100B6C00D0075CBF01221A60104B1A68D1075CBF1A
:100B7C0001221A600E4B1A68D2075CBF01221A6060
:100B8C00704700BF600100205C010020580100206C
:100B9C0054010020500100204C010020480100208D
:100BAC0044010020400100203C01002038010020BD
:100BBC0034010020244B1A68D0075CBF01221A6054
:100BCC00224B1A68D1075CBF01221A60204B1A68AD
:100BDC00D2075CBF01221A601E4B1A68D0075CBF9B
:100BEC0001221A601C4B1A68D1075CBF01221A60E3
:100BFC001A4B1A68D2075CBF01221A60184B1A688C
:100C0C00D0075CBF01221A60164B1A68D1075CBF73
:100C1C0001221A60144B1A68D2075CBF01221A60B9
:100C2C00124B1A68D0075CBF01221A60104B1A686D
:100C3C00D1075CBF01221A600E4B1A68D2075CBF49
:100C4C0001221A60704700BF900100208C01002027
:100C5C008801002084010020800100207C010020FC
:100C6C007801002074010020700100206C0100202C
:100C7C006801002064010020184B1A68D1075CBF82
:100C8C0001221A60164B1A68D2075CBF01221A6047
:100C9C00144B1A68D0075CBF01221A60124B1A68F9
:100CAC00D1075CBF01221A60104B1A68D2075CBFD7
:100CBC0001221A600E4B1A68D0075CBF01221A6021
:100CCC000C4B1A68D1075CBF01221A600A4B1A68D8
:100CDC00D2075CBF01221A60704700BFB001002030
:100CEC00AC010020A8010020A4010020A0010020DC
:100CFC009C010020980100209401002010B5054CA7
:100D0C0013462CB10A4601460220AFF3008010BDF9
:100D1C00204610BD0000000010B5431E0A4491424D
:100D2C0004D011F8014B03F8014FF8E710BD03464E
:100D3C000244934202D003F8011BFAE7704700000B
:100D4C0038B5124B05461C68A36BD3B91820FFF7B6
:100D5C00ABFA43F20E33A06303804AF6CD334380E3
:100D6C0041F2342383804EF26D63C3804DF6EC6305
:100D7C000381052343810B23838101220023C0E9D6
:100D8C000423A36B00221D615A6138BD640000204E
:100D9C00034613F8012B002AFBD1181A01387047AF
:100DAC001D000A085D000A0889000A088D000A085F
:100DBC00000000000000000000000000E7020A082C
:100DCC00F1020A08FB020A0805030A080F030A08C5
:100DDC001B030A0827030A0833030A083B030A0803
:100DEC0045030A0851030A08000000000000000037
:100DFC0057040A084D040A0843040A08B5030A08F4
:100E0C0037040A082B040A081F040A0817040A08E6
:100E1C000D040A0803040A08BF030A0800000000B6
:100E2C000000000075040A08C5040A08D3040A0867
:100E3C0055090A0889040A08AB040A0897040A0829
:100E4C00BF040A0877040A087B040A0800000000A3
:100E5C0000000000A9050A08F9050A0807060A0897
:100E6C0055090A08E5050A08AB050A08C1050A0870
:100E7C00F3050A08D7050A08A5050A0800000000B2
:100E8C000000000019070A0809070A080B070A08DE
:100E9C005A00252B3033643A253032750025592DF4
:100EAC00256D2D25645425483A254D3A2553257A30
:100EBC000061736374696D650062617564005365EC
:100ECC007269616C0055534253657269616C3100F3
:100EDC007479706500706172616D00636D64006996
:100EEC006400686E64007374726D0066696C7400E3
:100EFC006C766C0061646448616E646C657200723F
:100F0C00656D6F766548616E646C657200656E75B3
:100F1C006D48616E646C657273004A534F4E537426
:100F2C007265616D4C6F6748616E646C65720061CF
:100F3C00707000253031307520005D200025640074
:100F4C002C200028293A2000205B00636F64652068
:100F5C003D200025690064657461696C73203D2037
:100F6C00000D0A0066006C6E00666E00636F6465AF
:100F7C000064657461696C006E6F6E6500747261FB
:100F8C00636500696E666F007761726E00657272E0
:100F9C006F720070616E696300616C6C0000000020
:100FAC000000000000000000000000000000000035
:100FBC000000000000000000000000000000000025
:100FCC000000000000000000000000000000000015
:100FDC000000000000000000000000000000000005
:100FEC0000000000000000000000000000000000F5
:100FFC0000000000000000000000000000000000E5
:10100C0043000000B7000A08A1030A0861040A089B
:10101C0015090A0831090A0845090A08050A0A08C7
:10102C00390A0A08790A0A08FD0A0A08C10B0A08D3
:04103C00850C0A080D
:0410400000000000AC
:10104400BD0E0A0800000000AC0F0A08CC0F0A0805
:10105400EC0F0A080000000000000000000000007F
:10106400000000000C100A0800000000000000004E
:10107400000000000000000000000000000000006C
:10108400000000000000000000000000000000005C
:10109400000000000000000000000000000000004C
:0810A400000000000400002020
:1010AC00FFFFFFFF00000102030405060708090A01
:1010BC000B0C0D0E0F101112131415161718191AFC
:0810CC001B1C1D1E1F20280043
:0410D4007856341204
:04000005080A001CC9
:00000001FF
